:020000040800F2
:100000003004002045010008670900087504000855
:1000100063090008B9010008F90D0008000000009C
:10002000000000000000000000000000810B00083C
:10003000DD01000800000000690900086D0C0008DF
:100040005F0100085F0100085F0100085F01000810
:100050005F0100085F0100085F0100085F01000800
:100060005F0100085F0100085F0100085F010008F0
:100070005F0100085F0100085F0100085F010008E0
:100080005F0100085F0100085F0100085F010008D0
:100090005F0100085F0100085F0100085F010008C0
:1000A0005F0100085F0100085F0100085F010008B0
:1000B0005F0100085F0100085F0100085F010008A0
:1000C0005F0100085F0100085F0100085F01000890
:1000D0005F0100085F0100085F0100085F01000880
:1000E0005F0100085F0100085F0100085F01000870
:1000F0005F0100085F0100085F0100085F01000860
:100100005F0100085F0100085F0100085F0100084F
:100110005F0100085F0100085F0100085F0100083F
:100120005F0100085F0100085F0100085F0100082F
:10013000DFF80CD000F02EF800480047DD0F000873
:10014000300400200648804706480047FEE7FEE7E7
:10015000FEE7FEE7FEE7FEE7FEE7FEE7FEE7FEE777
:10016000850C00083101000830B50B46014600201F
:100170002022012409E021FA02F59D4205D303FA69
:1001800002F5491B04FA02F52844151EA2F10102EA
:10019000F1DC30BD064C074D06E0E06840F001039D
:1001A00094E8070098471034AC42F6D3FFF7C4FF39
:1001B0004C1700086C17000800BFFEE710B500F0F0
:1001C000ABF84021034800F053F9034800F0E0FE8B
:1001D00010BD00000018014040420F0070470000B1
:1001E00051B18200A2F1C042126842F001038200C4
:1001F000A2F1C042136009E08200A2F1C04212687D
:10020000034B1A408300A3F1C0431A6070470000FB
:10021000FEFF0F00D0E901121143C26811430269C9
:1002200011434269114382691143C2691143026A51
:100230001143426A1143826A1143C26A1143026B3D
:10024000114302689200A2F1C0421160816808293E
:100250000BD101688900A1F1C041096841F0400259
:1002600001688900A1F1C0410A60416B0968426BD5
:10027000526841EA0211426B926841EA0221426BE4
:10028000928941EA0241426B128A41EA0251426B71
:10029000127D41EA0261426B926911430268521C6D
:1002A0009200A2F1C0421160C16AB1F5804F1BD12A
:1002B000816B0968826B526841EA0211826B926815
:1002C00041EA0221826B128A41EA0251826B127D5D
:1002D00041EA0261826B9269114302689200A2F1C5
:1002E000C042C2F8041107E06FF070420168890053
:1002F000A1F1C041C1F804217047000008B54020B9
:10030000ADF8000048208DF803006946014800F070
:1003100019F808BD0018014008B50121402000F07F
:1003200035FB4020ADF8000010208DF803000320BD
:100330008DF802006946024800F004F808BD00008C
:10034000001801402DE9F04102460025002600205A
:1003500000230024002791F803C00CF00F0591F84A
:1003600003C00CF0100CBCF1000F03D091F802C0D8
:100370004CEA050591F800C0BCF1000F31D01468BB
:1003800000202BE04FF0010C0CFA00F3B1F800C094
:100390000CEA03069E4220D183004FF00F0C0CFAAA
:1003A00003F7BC4305FA03FC4CEA040491F803C0CC
:1003B000BCF1280F06D14FF0010C0CFA00FCC2F87A
:1003C00014C00AE091F803C0BCF1480F05D14FF00A
:1003D000010C0CFA00FCC2F810C0401C0828D1D354
:1003E0001460B1F800C0BCF1FF0F34DD5468002088
:1003F0002EE000F1080C4FF0010808FA0CF3B1F8F8
:1004000000C00CEA03069E4221D183004FF00F0C7E
:100410000CFA03F7BC4305FA03FC4CEA040491F818
:1004200003C0BCF1280F05D100F1080C08FA0CF844
:10043000C2F8148091F803C0BCF1480F07D100F155
:10044000080C4FF0010808FA0CF8C2F81080401CA4
:100450000828CED35460BDE8F0810246002093689E
:100460000B400BB1012000E0002070474161704754
:100470000161704700BFFEE72DE9F0470646884658
:10048000144699460027002525462DB94B463022B3
:100490004146304600F042F803E00A20B5FBF0F593
:1004A0007F1C002DF9D115E00A20B4FBF0F100FB10
:1004B000114000F1300A39467F1E062202FB01611D
:1004C000891F88B24B465246414600F027F80A2061
:1004D000B4FBF0F4002CE7D1BDE8F087F0B5054699
:1004E0000E4614461F4614E0EA2D04DD002506F1F1
:1004F0000C0086B204E0B6F59A7F01DD00250026E7
:1005000022783B463146284600F008F8A81D85B2FF
:10051000641C20780028E7D1F0BD00002DE9F04FE1
:1005200081468A4615461E46A5F1200000F0FF0BC5
:100530000C2306225146484600F0A6F82C20C1069E
:10054000088000241AE00BEB4B000E4901EB800001
:1005500010F8048000270DE008F0010010B10A48EF
:10056000068003E04FF6FF70074908804FEA6808ED
:10057000781CC7B2062FEFDB601CC4B20C2CE2DB88
:10058000BDE8F08FC01200080000026000B597B00F
:100590000121080200F0EAF90220019000200290F7
:1005A0000520039000200690059004904FF08050A5
:1005B0000790002008900C900990139010200B9049
:1005C00008200A900020129010900E900F90149026
:1005D0004FF48050119001A81690159008A8FFF7CD
:1005E00019FE01210020FFF7FBFD17B000BD000040
:1005F00008B50121602000F0C9F918208DF803002A
:1006000003208DF802004CF20370ADF8000069463B
:100610001648FFF797FE4FF68070ADF80000694668
:100620001348FFF78FFE10208DF803000220ADF86D
:10063000000069460E48FFF785FE4FF48050ADF884
:10064000000069460948FFF77DFE18208DF8030079
:100650004FF40B60ADF8000069460448FFF772FEE6
:100660004FF480510148FFF701FF08BD001401401D
:100670000018014010B5FFF7BBFFFFF787FF00F040
:1006800053F900F029F810BD30B52A244FF0C045C9
:100690002C8004120F4D2C80C4B22C808418641E50
:1006A000C4F30F242C808418641EE4B22C802B2405
:1006B00065072C800C12074D2C80CCB22C80CC18F6
:1006C000641EC4F30F242C80CC18641EE4B22C806A
:1006D00030BD00000000026000B5CF204FF0C041E7
:1006E000088000207449088081200880302008801C
:1006F000ED204FF0C041088064206F49088003203E
:1007000008801220088081200880E8204FF0C04136
:10071000088085206849088010200880782008809B
:10072000CB20410708803920634908802C200880AD
:10073000002008803420088002200880F7204FF035
:10074000C041088020205C490880EA204FF0C04169
:1007500008800020584908800880B1204FF0C0412F
:1007600008800020544908801B200880B62001071B
:1007700008800A2050490880A2200880C020C105B6
:10078000088035204C490880C1204FF0C0410880C6
:10079000112049490880C5204FF0C04108804520FC
:1007A000454908800880C7204FF0C0410880A2203A
:1007B00041490880F2204FF0C041088000203E49A6
:1007C000088026200107088001203B490880E0209E
:1007D0004FF0C04108800F2037490880262008804C
:1007E000242008800B2008800E2008800920088023
:1007F00054200880A8200880462008800C2008800B
:1008000017200880092008800F2008800720088012
:1008100000200880E1204FF0C041088000202649D8
:100820000880192008801B200880042008801020E0
:100830000880072008802A20088047200880392067
:100840000880032008800620088008803020088067
:10085000382008800F200880362001070880C82033
:10086000154908802A204FF0C04108800020124915
:10087000088008800880EF2008802B20410708802E
:1008800000200D4908800880012008803F20088052
:100890003A204FF0C04108805520074908801120B8
:1008A0004FF0C0410880054800F052F829204FF071
:1008B000C041088000BD000000000260FCBF0200D3
:1008C000F0B5059D2A264FF0C0473E800612154F11
:1008D0003E80C6B23E808618761EC6F30F263E8046
:1008E0008618761EF6B23E802B2677073E800E12C3
:1008F0000C4F3E80CEB23E80CE18761EC6F30F2639
:100900003E80CE18761EF6B23E802C26F7063E803C
:10091000002402E0034E3580641C02FB03F6A6426D
:10092000F8D8F0BD0000026010B502210648FFF7BC
:100930009DFD064800F00CF802210348FFF798FDE2
:10094000024800F005F810BD00180140FCBF02008D
:1009500001B502E00098401E009000980028F9D1EF
:1009600008BD00BFFEE770477047000029B1064A86
:1009700052690243044B5A6104E0034A52698243BC
:10098000014B5A61704700000010024029B1064A2D
:1009900092690243044B9A6104E0034A92698243DC
:1009A000014B9A61704700000010024030B50021F1
:1009B0000022002400232D4D6D6805F00C0121B1AB
:1009C000042905D0082923D105E0294D056022E03E
:1009D000274D05601FE0254D6D6805F47012234D0D
:1009E0006D6805F48034022505EB92421CB9214D57
:1009F000554305600BE01D4D6D6805F400351DB1D4
:100A00001C4D5543056002E0194D5543056002E059
:100A1000174D056000BF00BF144D6D6805F0F00173
:100A20000909154D6B5C0568DD4045600F4D6D682B
:100A300005F4E061090A104D6B5C4568DD40856096
:100A40000A4D6D6805F46051C90A0B4D6B5C456831
:100A5000DD40C560054D6D6805F44041890B074DCB
:100A60006B5CC568B5FBF3F5056130BD0010024055
:100A700000127A0000093D0014000020240000202C
:100A800070B50025002424E000BF40211348FFF783
:100A9000E4FC0028F9D0282000F07AFA40210F4821
:100AA000FFF7DBFC01280DD100BF40210B48FFF709
:100AB000D4FC0128F9D0C4F1070101208840C0B25C
:100AC000054304E0C4F10701012088408543601C10
:100AD000C4B2082CD8DB284670BD000000180140C5
:100AE00010B50446FFF718FC40212448FFF7BEFC70
:100AF00044F6206000F04CFA40212048FFF7B8FC93
:100B00001E2000F045FAFFF7F9FB40211B48FFF7D4
:100B1000A4FC70BB00BF40211848FFF79EFC0028D2
:100B2000F9D000BF40211548FFF797FC0128F9D004
:100B3000FFF7A6FFA070FFF7A3FFE070FFF7A0FF8D
:100B40002070FFF79DFF6070FFF79AFF2071FFF79D
:100B5000E3FB40210948FFF78BFCA078E1780844CB
:100B600021780844617808442179884202D1012023
:100B700010BD01E00020FBE70020F9E7001801406C
:100B8000704710B500F002F810BD00000CB5002051
:100B9000019000903348006840F48030314908608B
:100BA00000BF3048006800F4003000900198401CFD
:100BB0000190009818B90198B0F5A06FF1D12948BB
:100BC000006800F4003010B10120009001E0002026
:100BD00000900098012843D12348006840F010009D
:100BE000214908600846006820F0030008600846B4
:100BF000006840F0020008601A48406819494860DF
:100C00000846406848600846406840F48060486094
:100C10000846406820F47C1048600846406840F46C
:100C2000E81048600846006840F08070086000BF27
:100C30000C48006800F000700028F9D009484068AE
:100C400020F00300074948600846406840F0020071
:100C5000486000BF0348406800F00C000828F9D144
:100C60000CBD000000100240002002400448006853
:100C700020B103480068401E014908607047000029
:100C80002800002010B51348006840F00100114909
:100C9000086008464068104908400E494860084608
:100CA00000680E4908400B4908600846006820F4B7
:100CB000802008600846406820F4FE0048604FF439
:100CC0001F008860FFF75DFF4FF000600449086077
:100CD00010BD0000001002400000FFF8FFFFF6FE0C
:100CE00008ED00E021B1828942F40052828104E0E3
:100CF00082894DF6FF731A408281704702460020B8
:100D0000B1F5007F00D100BF13880B400BB101206B
:100D100000E00020704700002DE9F04786B005464E
:100D20000E460024A24600BFA1460027B08900B1AC
:100D300000BF2F462C8A4CF6FF700440F088044315
:100D40002C82AC894EF6F3100440B08831890843F8
:100D5000718908430443AC81AC8A4FF6FF400440DC
:100D6000B0890443AC8201A8FFF720FE1F488742E8
:100D700002D1DDF810A001E0DDF80CA0A88900F494
:100D8000004040B10AEBCA0000EB0A10316849008C
:100D9000B0FBF1F807E00AEBCA0000EB0A1031687B
:100DA0008900B0FBF1F86420B8FBF0F004012009E1
:100DB000642101FB1089A88900F4004040B1322071
:100DC00000EBC900B0FBF1F000F00700044308E0BD
:100DD000322000EB09106421B0FBF1F000F00F00AD
:100DE00004432C8106B0BDE8F087000000380140C4
:100DF000C1F308028280704700BFFEE70FB4054BC5
:100E000010B503A9044A029800F018F810BC5DF868
:100E100014FB0000B90F00082C00002002E008C8F5
:100E2000121F08C1002AFAD170477047002001E064
:100E300001C1121F002AFBD1704700002DE9FF4FAE
:100E400089B09B460446002506E025280BD05A466B
:100E50000B999047641C6D1C20780028F5D10DB0CB
:100E60002846BDE8F08F0027B8460122474900E038
:100E7000074314F8013F203B02FA03F00842F7D180
:100E800020782E2819D114F8010F47F004072A28DA
:100E90000ED06FF02F022078A0F1300109290CD874
:100EA00008EB880102EB410100EB0108641CF2E74A
:100EB0000A98641C50F8048B0A9020780028CED041
:100EC000642808D0692806D075281ED05A460B9988
:100ED00090476D1C58E00A994FF00A0901C90A9120
:100EE000002802DA40422D2102E0390504D52B21E9
:100EF0008DF82010012103E0F90704D02021F7E745
:100F00008A4608AE0DE00021FAE70A994FF00A0977
:100F100001C90A91F7E74946FFF726F9303106F88B
:100F2000011D0028F7D1ADEB060000F1200978077C
:100F300001D44FF00108C84502DDA8EB090000E02C
:100F400000208046002706E008A85A46C05D0B999D
:100F500090476D1C7F1C5745F6DB04E030205A4655
:100F60000B9990476D1CB8F10001A8F10108F5DC60
:100F700005E016F8010B5A460B9990476D1CB9F124
:100F80000001A9F10109F4DC641C65E709280100EE
:100F900001B50849009808604FF0E020006940F072
:100FA00001004FF0E021086100BF024800680028FE
:100FB000FBD108BD2800002070B504460D46E1B203
:100FC0000548FFF715FF00BF80210348FFF796FE95
:100FD0000028F9D0204670BD003801400EB5FFF75B
:100FE00049FB4FF6FF704FF4A073F02200210090F0
:100FF0000846FFF765FC4FF478433FA20A2114200E
:10100000FFF76CFA4FF4784344A218214B20FFF706
:1010100065FA1F2346A23C210D20FFF75FFA4FF42B
:10102000784346A23C217020FFF758FA4FF47843EA
:1010300043A23C217C20FFF751FA1F2342A25421F6
:101040000D20FFF74BFA4FF478433CA25421702057
:10105000FFF744FA4FF478437F2254218220FFF7B0
:101060005DFA4FF478433CA254218820FFF736FA0A
:1010700000F0A8F800F0E4F838A0FFF7BFFEFFF793
:101080009DF837E09DF806204FF478433C2164201A
:10109000FFF7F2F99DF807204FF478433C217620C2
:1010A000FFF7EAF99DF804204FF4784354216420B7
:1010B000FFF7E2F99DF805204FF47843542176209C
:1010C000FFF7DAF901A8FFF70BFD01280CD19DF815
:1010D000050000909DF804309DF807209DF806104B
:1010E00023A0FFF78BFE02E030A0FFF787FE344815
:1010F000FFF74EFFC6E7000054686973206973204C
:10110000612074656D706572617475726520616EC1
:10111000642068756D696469747900006D65617338
:101120007572696E67206D657465722E000000002F
:1011300048756D69646974793A0000002E000000FA
:10114000202552480000000054656D70657261747E
:101150007572653A00000000430000000D0ACEC21F
:10116000CAAAB6C8B2E2C1BFBCC60D0A00000000E0
:101170000D0AB6C1C8A14448543131B3C9B9A6213A
:101180000D0A0D0ACAAAB6C8CEAA25642E25642067
:10119000A3A5524820A3ACCEC2B6C8CEAA202564CF
:1011A0002E2564A1E6200D0A000000000D0AB6C13C
:1011B000C8A14448543131CAA7B0DC0D0A00000070
:1011C00080841E0030B51A4800681A4AB0FBF2F15C
:1011D000B1F1807F01D301201DE021F07F40401E4E
:1011E0004FF0E022506150170F22002807DA130752
:1011F0001D0E114B00F00F04241F1D5503E01307B3
:101200001C0E0E4B1C5400BF00204FF0E0229061DA
:1012100007201061002008B100BFFEE74FF0E0207A
:10122000006920F001004FF0E021086130BD0000AE
:101230000000002040420F0018ED00E000E400E054
:1012400000B585B001210420FFF7A0FB0121880330
:10125000FFF79CFB4FF40070ADF8100018208DF8DC
:10126000130003208DF8120004A91348FFF76AF851
:101270004FF48060ADF8100004208DF8130004A92D
:101280000D48FFF75FF84FF4E13000900C20ADF807
:101290000A000020ADF80800ADF80600ADF8040023
:1012A000ADF80C0069460548FFF736FD01210348FB
:1012B000FFF718FD05B000BD0008014000380140EF
:1012C0000000000000000000000000000000040416
:1012D000040404040004000000140A0A00000000D2
:1012E00000000000000014143F140A3F0A0A000026
:1012F00000041E1505060C14150F0400000012153D
:101300000D0A142C2A1200000000040A0A1E1515EA
:101310000936000000020201000000000000000089
:10132000002010080808080808102000000204081F
:10133000080808080804020000000004150E0E1535
:101340000400000000000404041F04040400000062
:101350000000000000000000000202010000000088
:10136000001F00000000000000000000000000005E
:101370000002000000100808080404020202010034
:1013800000000E1111111111110E000000000406D1
:1013900004040404040E000000000E1111080402ED
:1013A000011F000000000E11100C1010110E0000A3
:1013B0000000080C0A0A091E0818000000001F019E
:1013C000010F1010110E000000000E09010F111185
:1013D000110E000000001F090804040404040000AA
:1013E00000000E11110E1111110E000000000E115F
:1013F00011111E10120E0000000000000400000079
:1014000000040000000000000004000000040400CC
:101410000020100804020408102000000000000052
:101420001F00001F00000000000204081020100828
:101430000402000000000E11110804040004000062
:1014400000000E111915151D011E000000000404F6
:101450000C0A0A1E1233000000000F12120E1212A4
:10146000120F000000001E1101010101110E000009
:1014700000000F1212121212120F000000001F12B1
:101480000A0E0A02121F000000001F120A0E0A02B2
:101490000207000000001C1201013911120C0000AB
:1014A00000003312121E12121233000000001F043B
:1014B00004040404041F000000003E080808080893
:1014C00008090700000037120A060A0A123700004E
:1014D0000000070202020202223F000000001B1B64
:1014E0001B1B15151515000000003B1216161A1AC5
:1014F0001217000000000E1111111111110E000041
:1015000000000F12120E02020207000000000E116E
:1015100011111117190E180000000F12120E0A12E5
:101520001237000000001E1101060810110F000004
:1015300000001F1504040404040E00000000331210
:1015400012121212120C000000003312120A0A0CBE
:101550000404000000001515150E0A0A0A0A00000E
:1015600000001B0A0A04040A0A1B000000001B0AF0
:101570000A040404040E000000001F090804040209
:10158000121F0000001C04040404040404041C00D2
:10159000000202020404080808100000000E0808F7
:1015A0000808080808080E0000040A0000000000EF
:1015B0000000000000000000000000000000003FEC
:1015C0000004000000000000000000000000000017
:1015D000000C121C123C000000000302020E12124A
:1015E000120E000000000000001C1202021C00008D
:1015F00000001810101C1212123C00000000000025
:10160000000C121E021C000000003804041E04041A
:10161000041E000000000000003C120C021E221CF0
:1016200000000302020E1212123700000000040034
:1016300000060404040E000000000800000C080866
:101640000808080700000302023A0A0E12370000D9
:101650000000070404040404041F0000000000004C
:10166000000F15151515000000000000000F1212E4
:101670001237000000000000000C1212120C0000D3
:1016800000000000000F1212120E020700000000FE
:10169000001C1212121C103800000000001B060271
:1016A0000207000000000000001E020C101E0000D7
:1016B00000000004040E04040418000000000000F0
:1016C000001B1212123C0000000000000037120A3A
:1016D0000C040000000000000015150E0A0A0000AE
:1016E00000000000001B0A040A1B000000000000AC
:1016F0000037120A0C04040300000000001E080456
:10170000041E00000018080808040808080818004B
:10171000080808080808080808080808000604045B
:101720000408040404040600022518000000000058
:10173000000000000C12120C00000000000000006D
:101740000000000000000000000000006C1700080E
:1017500000000020300000001C0E00089C1700084C
:1017600030000020000400002C0E000800A24A04F3
:101770000000000000000000010203040607080941
:101780000000000001020304010203040607080927
:0C17900002040608000000000000000039
:0400000508000131BD
:00000001FF
